:020000041000EA
:1000000000B5324B212058609868022188439860DF
:10001000D860186158612E4B002199600221596106
:100020000121F02299502B49196001219960352056
:1000300000F044F80222904214D00621196600F024
:1000400034F8196E01211966002018661A6600F04E
:100050002CF8196E196E196E052000F02FF8012189
:100060000842F9D1002199601B49196000215960AB
:100070001A491B48016001219960EB211966A021F2
:10008000196600F012F800219960164914480160C1
:100090000121996001BC002800D000471248134993
:1000A000086003C880F30888084703B5996A0420EC
:1000B0000142FBD001200142F8D103BD02B5186610
:1000C0001866FFF7F2FF186E186E02BD00000240BE
:1000D000000000180000070000035F00212200005C
:1000E000F4000018222000A00001001008ED00E03C
:1000F00000000000000000000000000074B24E7A12
:1001000000200420F7010010C3010010C5010010F9
:10011000C1010010C1010010C1010010C101001097
:10012000C1010010C1010010C1010010C701001081
:10013000C1010010C1010010C9010010CB01001065
:10014000CD010010CD010010CD010010CD01001037
:10015000CD010010CD010010CD010010CD01001027
:10016000CD010010CD010010CD010010CD01001017
:10017000CD010010CD010010CD010010CD01001007
:10018000CD010010CD010010CD010010CD010010F7
:10019000CD010010CD010010CD010010CD010010E7
:1001A000CD010010CD010010CD010010CD010010D7
:1001B000CD010010CD010010CD010010CD010010C7
:1001C00000BE00BE00BE00BE00BE00BE00F04BF888
:1001D000103800BEF2EB887188880910B4880910C5
:1001E0003402001090A31AE700202149086006C8D5
:1001F00081F3088810471F48006800282FD10DA4FC
:100200000ECC002902D000F012F8F9E71A491B4A77
:10021000002000E001C19142FCD1194988471949E9
:1002200088471949884700BEFDE701C901C29A42C3
:10023000FBD37047B4880910C0000020207B002049
:1002400020030A10000004200000042020030A10EC
:1002500000100420001004200000000070470B482C
:1002600007F026FA0047EFF30580C0B270470000A0
:1002700008ED00E0000000D0307B0020FCE500200D
:10028000115A0010B9250010355B001057560000B8
:1002900006005250ABB3605340850910060052501F
:1002A000861C030250850910060052505422A29D5C
:1002B0005885091005005250DE65F46820030A10C5
:1002C000F8B5C04606480749091A8B10C90FC91866
:1002D00010B5491003D0044B002B00D0984710BD37
:1002E000207B0020207B002000000000054B10B583
:1002F000002B03D00449054800E000BFFFF7E2FFF0
:1003000010BDC0460000000028850020F8F1001054
:10031000264870B50500002207241F3503785100D8
:100320005A4052B2C9B2002A01DA6140C9B25E0035
:100330004A007140D2B2090601D56240D2B29E0095
:1003400051007240C9B2120601D56140C9B2DE0047
:100350004A007140D2B2090601D56240D2B21E01F4
:1003600051007240C9B2120601D56140C9B25E01A6
:100370004A007140D2B2090601D56240D2B29E0154
:1003800051007240C9B2120601D56140C9B2DB0109
:100390004A005940D2B2090601D56240D2B20130BA
:1003A0008542BBD15021024B5A5470BD2CE600202F
:1003B000FCE50020F0B50B0717D513284CD010280A
:1003C00000D1B8E0112853D16422634C634B2270F2
:1003D00058785A701870490700D494E04422604954
:1003E0002270087844245F4D2AE049071ED45D4DF1
:1003F0005A4B5B491A780878432A26D0442A05D1FB
:100400005B78432B02D1584B433A1A70002804D032
:10041000002301220B70554B1A702B78002B04D04F
:10042000002301222B70524B1A70F0BD13284AD1C1
:100430004C4D494C494B01220120494924780A700E
:100440005A785C701A70432AD8D15B78442BDDD17E
:10045000484B423A1A70D9E70123424D3E4C2B706B
:100460003E4B227858785A7018704907E3D4C0E799
:1004700016284AD101223E4B374C1A7000223E4BBF
:100480001A703E4B1A60354B227858785A701870A3
:10049000490738D5354A117800290FD1384E394DE2
:1004A000B06A2F68C01B384FB84207D93048017076
:1004B00001211170B26A2A602F4A117028492478EC
:1004C0000878284DBCE7244C244B10283CD0112838
:1004D00000D183E71628DDD00328EFD1234A117815
:1004E0000029EBD1264E294DB06A2F68C01B264F3C
:1004F000B842E3D9DAE7194B174C5D7822781D70C2
:100500005A704907E1D4174D73E70328F3D101224C
:10051000174B114C1A700022174B20781A70174B8A
:100520001A600E4B5A7858701A704907D6D40C4985
:100530000C4D087860E76322074C084B227058780E
:100540005A7018704907DED5432205492270087891
:100550004324044D74E7C046EEE50020B4040020B7
:10056000F4E50020F2E50020F5E50020ECE50020B0
:10057000E4E50020F6E50020EDE5002058C5002068
:1005800000400540F88000201FA1070000810020E6
:1005900004228021F8B5254B49001A60244A1368CB
:1005A0000B42FCD050680004000C07F0BFFF21494B
:1005B00007F069FF204D041CE969E86207F09AFF23
:1005C000002814D02E6A201C311C07F0A9FF002837
:1005D00001D02C62261C6F6A201C391C07F08AFF90
:1005E000002806D1391C301C07F033FFA862201CFC
:1005F000F8BD3A236C62EB5C271C002BF2D032234F
:10060000EB5C002BEED10D4B00211A680C482A60E0
:100610001B7901222B7105F0ADFC0121012005F0B1
:1006200065FC2E6A6F6AEC6ADCE7C04600E00440B5
:1006300000C004403333D33AFCE50020F8F1001049
:100640001103001030210A4A0A4B525C0A499200F9
:10065000D25808781378984201D3013B0B70537835
:10066000064A1178994201D3013B13707047C04686
:10067000FCE50020300600207106002070060020F6
:10068000834870B505000022072482B01F35037827
:1006900051005A4052B2C9B2002A01DA6140C9B2CF
:1006A0005E004A007140D2B2090601D56240D2B262
:1006B0009E0051007240C9B2120601D56140C9B214
:1006C000DE004A007140D2B2090601D56240D2B2C2
:1006D0001E0151007240C9B2120601D56140C9B273
:1006E0005E014A007140D2B2090601D56240D2B221
:1006F0009E0151007240C9B2120601D56140C9B2D3
:10070000DB014A005940D2B2090601D56240D2B29B
:100710000130A842BBD150235E4CE35C934200D130
:10072000B4E05D495D4E00915D48310006F07AFF0E
:100730005C4D5D4928000EF099FA854215D05B4B5F
:100740005B481A689168A960D168E96011692961FC
:10075000516969619169D269A961EA61B369290046
:100760002B60337F2B7108F0DFFA200051490EF027
:100770007DFA844229D0504B44211A685B68A260FC
:10078000E3604E4B00222386002363520231625401
:10079000063162540221FF31E163C1396352A3641F
:1007A00063874233E2540F3BE2543F390133E15453
:1007B0000433E2543300326A203322601B7940480C
:1007C000237108F0B1FA02B070BD0A22E37B013355
:1007D0005BB2E373A2560C2A02DD374A9278A2720A
:1007E0000B22A2561F2A02DD334AD278E2720C2273
:1007F000A256062A02DD304A127922730D22A25631
:10080000172A02DD2C4A527962730E22A2563B2A25
:1008100002DD294A9279A2733B2B02DD264BDB795C
:10082000E3733023E25C052A01D90022E25431232C
:10083000E25C082A01D90822E2544A23E25C042A35
:1008400001D90022E2544123E25C022A01D90022AC
:10085000E2544423E25E052A01DD0522E2524623EA
:10086000E25C042A01D90022E2544823E25A072A12
:1008700001D90022E2524223E25C012A01D902227C
:10088000E25421000F4808F04FFA9CE70E4949E76F
:100890002CE60020FCE5002028F20010E48009107E
:1008A000648200200CE600202CF200108806002054
:1008B00034F2001058F20010CC06002001080000AD
:1008C00060F200107CF2001024F2001010B501223A
:1008D0000021044805F04EFB0121012005F006FB34
:1008E00010BDC04611030010F0B54F46D64646462F
:1008F0000023C0B504780F009C46002C27D0174B6E
:10090000461C9946164B9846737800229A464B46E9
:1009100035781988434603E0013204338A420ADC01
:100920001878A042F8D15878A842F5D19878504567
:10093000F2D1D3B29C4662463B00203A3A707A78B4
:1009400001370A325A70B4780336002CDCD1002308
:100950003B70E0BCBA46B146A846F0BDC8E50020F1
:1009600004830020F0B55746DE464E464546332305
:10097000E0B5CA4F83B0FB5C002B00D0C0E0302351
:10098000FC5C002C00D0A7E00C23C54AFB56C54DEB
:1009900012689B0098582900FFF7A6FFC24A0194ED
:1009A0009046128848210092BE202A00BF4B09F0D1
:1009B00089FEBF4D0B22BF4CBF4B00261900BA5613
:1009C0002000994606F02EFE434601965B882200E1
:1009D000009342212B002E2009F046FEB74BB84A67
:1009E0009B46009342212B004A200196924609F033
:1009F0003BFE0A224946BA56200006F013FE434643
:100A000001969B882200009342212B00582009F078
:100A10002BFE5B465246009342212B007420019628
:100A200009F022FE0823FA5E2000A64906F0FAFD2E
:100A300043460196DB882200009342212B0082204E
:100A400009F012FE0D224946BA56200006F0EAFDD2
:100A5000434601961B89220000939C212B004020D5
:100A600009F002FE5B46984A00939C212B005C2013
:100A70000196924609F0F8FD0E224946BA5620002A
:100A800006F0D0FD434601965B89220000939C212D
:100A90002B006A2009F0E8FD5B46524600939C213A
:100AA0002B008620019609F0DFFD0F224946BA5639
:100AB000200006F0B7FD434601969B892200009373
:100AC0009C212B00942009F0CFFD03B0F0BCBB4665
:100AD000B246A946A046F0BD0C23714AFB56A400BD
:100AE000A2589B009A58002301936F4B704D984673
:100AF0001B886F21009314202B0009F0B5FD59E7E6
:100B00000025724C6D4E2300009629213C20704A2E
:100B1000019509F0A9FD2300009637213C206D4A7C
:100B2000019509F0A1FD2300009658213C206A4A56
:100B3000019509F099FD230000968A213C20674A1F
:100B4000019509F091FD23000096AA213C20644AFA
:100B5000019509F089FD23000096B8213C20614AE7
:100B6000019509F081FD23000096C4213C205E4AD6
:100B7000019509F079FD5D4B292199461A685C4B76
:100B80008220984600930195230009F0C9FD4B4649
:100B90005A6843463721009382202300019509F0CB
:100BA000BFFD4B469A68434658210093822023009C
:100BB000019509F0B5FD4F4B8A211A6899464346C5
:100BC000822000930195230009F0AAFD4B465A6844
:100BD0004346AA21009382202300019509F0A0FD3D
:100BE0004B469A684346B821009382202300019522
:100BF00009F096FD404BC4211A68434682200093B9
:100C00000195230009F08CFD3C4B3D4A0096D02114
:100C1000322001951E0009F027FD3A4C0021206882
:100C200007F01AFC616807F017FCA16807F014FCD4
:100C3000E16807F011FC216907F00EFC616907F01B
:100C40000BFCA16907F008FCE16907F005FC216ACB
:100C500007F002FC616A07F0FFFBA16A07F0FCFBEA
:100C6000E16A07F0F9FB216B07F0F6FB616B07F017
:100C7000F3FBA16B07F0F0FBE16B07F0EDFBF62156
:100C8000890507F000FC204B021C0093D0213300A3
:100C90008220019509F080FD71E6C046FCE5002048
:100CA000CC0300202C810020D4040020D406002096
:100CB0000075002084820020C8F20010FFFF0000B1
:100CC000A8F60010D0F20010D8F20010F87400203E
:100CD00088F2001090F2001098F20010A0F20010BC
:100CE000A8F20010B0F20010B8F20010D07F00207F
:100CF000E0FF000004850020A8040020F07400201C
:100D0000C0F200105CC5002020FE0000F0B5DE46F9
:100D1000574645464E460023E0B57D4C7D48A544E8
:100D200002AA1373049307F0FFFF7B4807F0A0FEAD
:100D30001C227A4B924603329046002700241A0068
:100D40009A4406AD136819789C46002922D00023E6
:100D500007209346002681461A004BB2002B00DA8A
:100D60008DE00127A300E9500132002C00D17DE085
:100D7000A600AB592900AE1903E004318E4200D120
:100D800074E008689842F8D16346995C160000291F
:100D9000E3D15A4604329245D4D1631E9C46012CBD
:100DA00000D1A4E0A246A300270000266446D44652
:100DB00005AA98182B00012F08D01A6859688A4292
:100DC00001D919605A6004339842F6D10136013FC7
:100DD0000438A642EED36446002C00D184E0002300
:100DE00098464F4B4F4F99460A239B4653460394D0
:100DF0003E004446B84602932B786A789C461B0412
:100E00009A465746A978EB78100208431B063843E8
:100E1000184304AB049000934846634607F084FFF0
:100E200002AB1B890134338002AB9B7A0435B3706B
:100E30005B46F370029B04369C42DDD39A465246D1
:100E400047460423039C002A4CD10022390036482F
:100E5000FA5407F069FF354B1C8087239B009D44A3
:100E6000F0BCBB46B246A946A046F0BD6346995CBD
:100E700001341600E4B2002900D06EE789E70B00C8
:100E800040468343C02B08D166447378A0001B0200
:100E90005B1802272B50023267E70F2308009843A4
:100EA000E0280BD16644737809041B025B18B17803
:100EB000A0005B1803272B50033256E70B0048466F
:100EC0008343F02B16D16644737809061B045B1824
:100ED000B178A00009025B18F17804275B182B5049
:100EE000043242E79300B0E700230E4FADE7012341
:100EF0009A4674E7032FD5D002D9042FE3D034E704
:100F0000012F00D12DE7022F00D02EE7BCE7C0460D
:100F1000E4FDFFFFDCF20010E8F2001038040020CE
:100F2000F4F20010048300200CF30010C8E5002048
:100F3000F0B5DE46574645464E46E0B52021AFB0F7
:100F400005000DF0B9FC071E00D19DE20023954974
:100F50000370280001370DF089FE002804D0380006
:100F60000DF000F9904B1880280090490DF07EFE9E
:100F7000002804D038000DF0F5F88D4B18802800BB
:100F80008C490DF073FE002804D038000DF0EAF80B
:100F9000894B1880280089490DF068FE002807D089
:100FA00038000DF0DFF8421E90414E22844B9854D9
:100FB000280084490DF05AFE002809D038000DF0B1
:100FC000D1F803234D2218407D4B985408F098FA2D
:100FD00028007D490DF04AFE002809D038000DF0A8
:100FE000C1F803234D221840754B985408F088FA35
:100FF000280076490DF03AFE002807D038000DF0A1
:10100000B1F8421E904133226D4B9854280070492C
:101010000DF02CFE002807D038000DF0A3F8421E7A
:1010200090413422664B985428006A490DF01EFE08
:10103000002807D038000DF095F8421E9041352267
:101040005F4B9854280064490DF010FE002807D02B
:1010500038000DF087F8421E90413622584B9854C4
:1010600028005E490DF002FE002807D038000DF080
:1010700079F8421E90413722514B98542800584924
:101080000DF0F4FD002807D038000DF06BF8421E7B
:10109000904138224A4B9854280052490DF0E6FD01
:1010A000002808D038000DF05DF83222444BC0B261
:1010B000985408F04BFA28004B490DF0D7FD002852
:1010C00007D038000DF04EF8421E904139223C4BBB
:1010D0009854280045490DF0C9FD002807D0380074
:1010E0000DF040F8421E90413B22354B98542800A9
:1010F0003F490DF0BBFD002807D038000DF032F855
:10110000421E90413C222E4B9854280039490DF044
:10111000ADFD002805D038000DF024F84222284B00
:101120009854280034490DF0A1FD00280AD0380059
:101130000DF018F8C0B24622214B042800D81CE359
:101140000421995428002D490DF090FD002875D0F8
:1011500038000DF007F8021CC0B2082800D915E3CA
:101160003121174BD6B25A5401395B5C244A9B009B
:101170009B5898465B78994600239C464B46002B2B
:101180005CD0204B9B46204B08936346D8B2434625
:101190001C78002C52D062464346624359680023B3
:1011A000891837E01CF30010AC06002020F3001073
:1011B000C0E5002024F30010C2E5002028F3001051
:1011C000FCE5002030F3001038F300103CF3001071
:1011D00044F300104CF3001054F300105CF30010C3
:1011E00068F3001070F3001078F3001080F3001023
:1011F00088F3001090F3001098F30010A0F3001093
:101200003006002071060020700600200133DAB29B
:10121000A24206D2CA5CB242F8D15A461370089B69
:1012200018700130C0B2814508D901239A46D444D0
:101230006346D8B243461C78002CACD128007B49C9
:101240000DF014FD002805D038000CF08BFF44226F
:10125000774B9852280077490DF008FD002807D0F9
:1012600038000CF07FFF421E90413D22704B985495
:10127000280071490DF0FAFC002807D038000CF066
:1012800071FF421E90413E22694B985428006B49E1
:101290000DF0ECFC002807D038000CF063FF421E74
:1012A00090413E22624B9854280065490DF0DEFCC7
:1012B00000280AD038000CF055FFC0B24A225C4B1F
:1012C000042800D864E20021995428005D490DF0FB
:1012D000CDFC00280AD038000CF044FFC0B2302208
:1012E000534B052800D85CE2052199542800564943
:1012F0000DF0BCFC002804D038000CF033FF534B39
:101300001880280052490DF0B1FC00281DD038008B
:101310000CF028FF302602004E494F48444C0A91F9
:101320000B90A65D4D4BB600F35802269B880296A3
:101330000026984646230196E45C494EA400A45931
:10134000434612B2009402F083FF280045490DF095
:101350008DFC002806D038000CF004FFC3B2172B18
:1013600000D827E2002428003F490DF07FFC002828
:1013700006D038000CF0F6FEC3B23B2B00D8F8E1E3
:1013800028003A490DF072FC002806D038000CF015
:10139000E9FEC3B23B2B00D8E7E1280034490DF049
:1013A00065FC00280ED038000CF0DCFEC3B2002B28
:1013B00008D00A261E492F4A8E57925D9A4201D3C1
:1013C0000124C87228002C490DF050FC002807D0D9
:1013D00038000CF0C7FE431EDBB20B2B00D8C0E177
:1013E000280026490DF042FC002805D038000CF0FA
:1013F000B9FE01240E4B1881280021490DF036FC5E
:10140000002800D1A2E138000CF0ACFEC3B2062BDC
:1014100000D9A2E1064B18731A4807F039FF2FB024
:10142000F0BCBB46B246A946A046F0BDA8F30010EA
:10143000FCE50020B0F30010B8F30010C4F3001076
:10144000C8F30010CCF30010D4F30010CA0600203B
:10145000D8F3001080001400660014004C810020B6
:10146000EC050020E0F30010E8F30010ECF30010AE
:10147000F0F30010BC030020F4F30010F8F30010A8
:1014800000F4001004E600202800D9490DF0EEFB1E
:10149000002800D09AE12800D6490DF0E7FB00288B
:1014A00000D08BE12800D4490DF0E0FB002800D0EB
:1014B00093E12800D1490DF0D9FB002800D0F5E1D7
:1014C0002800CF490DF0D2FB00280ED0CD4ACE4BDC
:1014D0001168CE481960127900211A71012204F0B6
:1014E00049FD0121012004F001FD2800C8490DF04B
:1014F000BDFB002803D0C74A13880133138028009E
:10150000C5490DF0B3FB002803D0C24A1388013B44
:1015100013802800C1490DF0A9FB002803D0412207
:101520000221B94B99542800BD490DF09FFB0028BA
:1015300003D041220121B44B99542800B9490DF040
:1015400095FB002803D041220021AF4B995428007D
:10155000B5490DF08BFB002800D1BFE03023AA4E27
:10156000F25C052A01D90022F2543123F25C082AE8
:1015700001D90022F2540C23F356062B01DD00237F
:1015800033733100A94807F0CFFB0822B35E0B216B
:101590000A223027B2567156A54807F0C5FBF45D04
:1015A000A448A4000C2120580F240E230D227156AC
:1015B00034578900B256F356095800949E4807F0F4
:1015C000B3FBB06907F012F8102308900991F06A94
:1015D0009A4607F00BF806900791706A07F006F834
:1015E00004900591306A07F001F802900391002100
:1015F000F06906F077FF43425841089A099B8F4CE7
:10160000B24451460090200007F08EFB31238C48F5
:10161000F15C07F089FBF15D8A4807F085FB322316
:101620008948F15C07F080FB3A23F35C002B00D182
:1016300056E18649864807F077FB3323F35C002B9D
:1016400000D14BE18149834807F06EFB3423F35C02
:10165000002B00D140E17D497F4807F065FB352331
:10166000F35C002B00D135E178497C4807F05CFB46
:101670003623F35C002B00D12AE17449784807F047
:1016800053FB3723F35C002B00D11FE16F497548F2
:1016900007F04AFB3823F35C002B00D114E16B49BF
:1016A000714807F041FB3923F35C002B00D109E1BD
:1016B00066496E4807F038FB3B23F35C002B00D1F2
:1016C000FEE062496A4807F02FFB6A4C6A49200035
:1016D00007F02AFB2000694907F026FB280068492B
:1016E0000DF0C4FA002800D0FCE0280065490DF098
:1016F000BDFA002800D192E6634D2B68002B00D183
:101700008DE68A2261490BA807F0C2F802ABAE262B
:101710009C460BAC6644607807F01EFA20780234D1
:1017200007F01AFAA642F6D1E126002476022B68C9
:101730001B19587807F010FA2B68185D023407F06F
:101740000BFAB442F3D107F071FA68E62800504969
:101750000DF08CFA002800D055E6002C00D15EE692
:101760005AE6294B012498723AE6274B0124D87394
:1017700013E6254B0124987302E698544549280046
:101780000DF074FA002800D0E2E457E50822E7E4FF
:101790009854414928000DF069FA002800D09AE5D4
:1017A000A4E598543D4928000DF060FA002800D0C7
:1017B000A2E5A6E5144B01245873D4E53822012193
:1017C000114B3748995407F053F928E638220E4B4D
:1017D00034489F5407F04CF921E60B4B186A06F089
:1017E00005FF02000B00304807F09EFA17E6C046DE
:1017F00010F4001020F4001030F4001044F4001035
:1018000058F40010F8F10010FCE50020110300105E
:1018100060F40010CA06002068F4001070F4001094
:1018200078F4001080F4001088F4001090F4001098
:10183000ACF40010CC030020C4F40010DCF4001061
:1018400004F5001014F5001020F500102CF4001021
:1018500034F5001048F5001058F5001068F5001038
:1018600078F5001090F50010A0F50010B8F5001004
:10187000C8F5001070F5001064820020E48200209A
:10188000DCF50010E4F50010EC7F00200C8109105D
:1018900008F40010A0F30010CCF30010D4F30010F3
:1018A00028F4001018F4001038F40010114B586A96
:1018B00006F09CFE02000B000F4807F035FAAEE57B
:1018C0000E49FFE60D49F4E60C49E9E60B49DEE670
:1018D0000A49D3E60949C8E60849BDE60749B2E620
:1018E0000649A7E6064805F0E3FE002103000800CC
:1018F0009847C046FCE500204CF4001044850910D0
:1019000055420000F0B5C646642000B507F01CFA49
:10191000194E00B23080431C2AD00023174F98463E
:10192000174C184D0AE0FE2B01D14346238064205A
:1019300007F00AFA00B23080431C19D02288C0B2E6
:10194000531C9BB238702380A8540A28EBD142461E
:10195000EA54EB18013B28001A70FFF7E9FA4346F6
:101960006420238007F0F0F900B23080431CE5D1F9
:1019700080BCB846F0BDC046CCE50020E7E50020BD
:10198000CAE500206481002030B500240B4D83B0EF
:1019900020232022682101950094C02002F024FC1D
:1019A000074B202218606821202301950094122003
:1019B00002F01AFC034B186003B030BDA8A301105D
:1019C000CC820020D0820020F0B5DE464546574646
:1019D0004E460023E0B546250E2091B0D94C079322
:1019E000665DD94BB6009B590D93205606F09EFDBF
:1019F000D64906F048FD06F0BBFDD54B07B29B5912
:101A00000E934223E15C9846002900D147E1012969
:101A100000D144E130230022E35CCE4D9B00EB5823
:101A20000E989B880192CC4A0291904692590D994A
:101A300000923A0002F00CFC0D2020560B2801DD2C
:101A40000C3800B206F072FDC04906F01CFDC34917
:101A500006F019FD071C0E20205606F067FDC04950
:101A600006F011FD06F084FD0600381C06F080FD2E
:101A70004627142136184B200AF002FEE25DB94BCE
:101A800092009B5836B20E934223E15C994601299D
:101A900008D8062141200AF0F3FD4B460E90E25D86
:101AA000E15C920030239B46E35C0E989B00EB5870
:101AB0005B8802910021019141468A580D9900925C
:101AC000320002F0C5FB0F20205606F02FFD9F4983
:101AD00006F0D9FC06F04CFDA34B07B2BE009946B8
:101AE0009859A24B9A469B5908933523E25C002AE9
:101AF0004BD09F4906F0C7FC06F03AFD9C4942B224
:101B00000898904606F0BFFC06F032FD43B29B46B3
:101B1000434678330FAADBB213805B467833DBB2DF
:101B200053800AF0B1FA4346DB0F43445B1008933D
:101B3000904B1A685B680A920B934D23E35C022B6F
:101B400000D1B6E05FD8002B00D1CAE08022120697
:101B500094460A9B88496344180006F080FC06F00E
:101B600007FD089B40B29C468444634608935B464D
:101B7000DB0F5B445B1080490B98099306F06FFC08
:101B800006F0F6FC03B207935EE05B467B484146F5
:101B90000E90E35C9B00EB58DB8802920192462298
:101BA000A25C92008A58010000923A0002F050FBB9
:101BB0003023E45C53467249985906F064FC71493D
:101BC00006F04AFC06F0D4FC4B46C7B26C49985963
:101BD00006F059FC6B4906F03FFC06F0C9FC6A4A66
:101BE000A400A258390001922B5910221B88C0B2C0
:101BF0000093102308F07CFB11B0F0BCBB46B2464A
:101C0000A946A046F0BD032B00D090E05A49101C15
:101C100006F025FC06F0ACFC089B40B29C468444D0
:101C2000634608935B46DB0F5B445B1009930B9B99
:101C3000802212069446634418004F4906F00FFCB8
:101C400006F096FC03B207936B461B7F099A5BB2C2
:101C5000D31A022204922E32A25C00219200AA58CA
:101C60000020D2880392722202925A460192424682
:101C70000092089A09F020FE0AF00CFA4223E25C76
:101C8000012A48D030230122E35C39009B00EB5845
:101C90000F98DB88009206320AF002FA88E70331D7
:101CA00066200AF0EDFC43460E90665DE15CB600EE
:101CB000B0E68022120694460B9B2F49634418001D
:101CC00006F0CDFB06F054FC089B40B29C468444D1
:101CD000634608935B46DB0F5B445B1009930A9BEA
:101CE000A6E725490B9806F0BAFB06F041FC089BD5
:101CF00040B29C468444634608935B46DB0F5B44DA
:101D00005B101D490A98099306F0A9FB06F030FC08
:101D100003B2079398E7123BE35C39009B00EB5852
:101D20000F98DB88009206320AF09CFD40E76B4674
:101D300020229B5E08935B46DB0F5B445B1009939C
:101D400082E7C046FCE50020D8050020898888414C
:101D5000B00500204C810020EC0500200000A040D0
:101D6000610BB63FC4050020B4C50020B8D50020E3
:101D70000000D442D07F00200000C8417200010062
:101D80000000C8420000E04200060020F0B5DE4638
:101D90004E46454657461F24E0B50023022501263E
:101DA0008BB0B0221E214620049305930195009428
:101DB000283309F0E9FB262345221F2145200196FF
:101DC000009408F0C5FA2623B0221F21B020019606
:101DD000009408F0BDFAF82304225B012121B12010
:101DE000009509F023FBD14CE16A206A06F031FB33
:101DF000A66A011C301C06F02CFB0021051C06F015
:101E000079FB002800D00025311C281C06F027FB98
:101E1000C74906F038FB06F0DDFB80B2051C6428DC
:101E200000D96425C34BADB2984630234246E35CEB
:101E30009B00D3582A000B3A5E8A122A00D89E8A49
:101E4000092800D8DE8A062173BA6A1C9BB2009169
:101E50004820D2B21A3109F0C1FAB74B1B78002BD7
:101E600000D0D0E0B54F2A003800B54905F0DAFBC4
:101E70000022B44B01920C213A005E20009608F03B
:101E8000F3FB3323E35C002B0BD00F23E356AE4D63
:101E9000002B00D0BEE02B78002B00D1C8E200233D
:101EA0002B70302300259946A84F19E06E31300081
:101EB0000AF09AFB79883B88090419430AF0D4FB9D
:101EC0004B4642460790E35C01359B00D358089986
:101ED0001A8901230AF01CFAABB22DB23C2B34D084
:101EE000280006F023FB9A4906F0CDFA06F040FBE5
:101EF00006B2772130000AF077FB79883B88090425
:101F000019430AF0B1FB05210890280005F002FCF6
:101F100009B20029CAD0732130000AF065FB798824
:101F20003B88090419430AF09FFB4B464246079041
:101F3000E35C01359B00D35808995A8901230AF0C4
:101F4000E7F9ABB22DB23C2BCAD1FFF73DFD3E23E2
:101F5000E35C002B37D07F4B002599467E4B7F4EAC
:101F600098467F4B7F4F9B467F4B9A4614E000225A
:101F7000B35E0022029201924246890052585046B6
:101F800000924A46525801350958ADB209980BF0F3
:101F900033FA0236072D26D029000997042D01D9DE
:101FA000691F89B20123180028402B42DFD100228B
:101FB000B35E424602900190890052585846009202
:101FC0004A465258DFE73023E35C684A9B009A5840
:101FD000682101924246D35868201B882022009332
:101FE000202308F085F94425635F002B00D08AE1A7
:101FF0003423E35C002B11D10BB0F0BCBB46B246DE
:10200000A946A046F0BD4D4F2A003800584905F0BA
:1020100009FB2DE71E2B00D041E73CE70126554D7B
:10202000DC237C22B42174200095019609F0ACFADF
:10203000CC2300958C22C4216420019609F0A4FAD7
:102040004D4B1D685F684D23E35C022B00D151E2CC
:1020500031D8002B00D199E04849381C06F0FFF92F
:1020600006F086FA00B206F061FA80231B064349A7
:10207000061CE81806F0F3F906F07AFA00B206F04A
:1020800055FA3F4D071C2B78002B00D1BEE03D4B8D
:102090000020185E06F04AFA384906F0E0F906F02A
:1020A00067FA40B206F042FA011C301C06F0D1F982
:1020B000354B061C52E2032B00D0E1E180231B06C6
:1020C000F8182E4906F0CBF906F052FA00B206F0E5
:1020D0002DFA2A49061C281C06F0C1F906F048FA18
:1020E00000B206F023FA264D071C2B78002B00D1F6
:1020F0008CE0244B0020185E06F018FA80231B06A3
:102100009C461E49604406F0AAF906F031FA40B236
:1021100006F00CFA011C301C06F09BF91A4B061C49
:102120000020185E06F002FA5FE0C046FCE50020E1
:102130000000C8424C810020FAE500208482002083
:10214000F0F50010F8740020F7E500200875002075
:1021500089888841D8050020EC050020B0060020C1
:10216000B005002078007800C40500201806002083
:10217000FCF50010FFFF0000D07F00200000C841E8
:10218000EFE50020D8E50020D6E50020C749281C4F
:1021900006F065F906F0ECF900B206F0C7F9C3499C
:1021A000061C381C06F05BF906F0E2F900B206F0F6
:1021B000BDF9BF4D071C2B78002B27D0BD4B00204D
:1021C000185E06F0B3F9B94906F049F906F0D0F9FE
:1021D00040B206F0ABF9011C301C06F03AF9B64BE0
:1021E000061C0020185E06F0A1F9B04906F037F988
:1021F00006F0BEF903B204936B461020185606F0A1
:1022000095F9011C381C06F024F9071C301C06F057
:10221000AFF9021C40B2103000DA06E152B2102AC7
:1022200000DD00E1C821891A04237820A34A89B27D
:1022300008F016FB381C06F09BF9031C40B2103066
:1022400000DAEDE058B2102800DDE7E07830042332
:10225000C8219B4A80B208F003FB2B78002B00D1E9
:10226000CAE6944B0020185E06F060F9924B051CFC
:102270000020185E06F05AF94D23E35C061C022B81
:1022800000D186E100D9DAE0002B00D16FE1874967
:1022900006F0E5F806F06CF980231B0644B2E81856
:1022A000824906F0DCF806F063F903B20593231CBB
:1022B000103400DBD8E010235B42C822D21AD2B21D
:1022C000D31C033AD1B2012201927E4ADBB20092C2
:1022D00075207B2209F058F9059A131C52B210326E
:1022E00000DBC7E010235B427833DBB2DA1C033B30
:1022F000D8B201230193744BC5210093D2B2CB23F2
:1023000009F042F978E6714E3088C01800B20AF040
:102310009DF930806E4E6F4F3388605BC01800228D
:10232000BB5EDB10C01800B20AF090F93080605B31
:10233000694E4203121AD20033888018C01800B2C6
:102340000AF084F93080654E635B30885B00C01A08
:1023500000B20AF07BF93080635B614E9800181878
:102360003388C01800B20AF071F930805D4E635BAB
:102370003088C01A00B20AF069F93080635B5A4EA7
:10238000D800C01A3388C01800B20AF05FF9308054
:10239000564E635B3088C01800B20AF057F930809F
:1023A000635BD80018180022BB5EDB10C01873886E
:1023B000C01800B20AF04AF97080605BB38842032B
:1023C000121AD2008018C01800B20AF03FF9B0808B
:1023D000635BF0885B00C01A00B20AF037F9F08046
:1023E000635B980018183389C01800B20AF02EF900
:1023F0003081605B73898203121A92008018C018C2
:1024000000B20AF023F97081635BD800C01AB38967
:10241000C01800B20AF01AF9B081E9E5102015E7FA
:102420001020404212E71022FCE610225242F9E648
:102430000BF00AFC2E4B186001232B7031E5032BA7
:1024400000D0A4E080231B06C018184906F007F846
:1024500006F08EF8154944B2281C06F000F806F084
:1024600087F803B2059322E75BB2102B00DC24E768
:10247000102322E75BB2102B00DC35E7102333E793
:10248000002006F053F8061C002006F04FF8084D17
:10249000071C2B78002B00D1B8E6002006F046F888
:1024A000011C301C05F0D5FF061CA5E60000C84144
:1024B000EFE50020D6E50020D8E50020FFFF000072
:1024C000FFE000005185000020FE0000CA06002049
:1024D000C8060020D2E50020C6060020C406002061
:1024E000C2060020C0060020BE060020B006002064
:1024F000A804002080231B06E8182B4905F0AFFF35
:1025000006F036F800B206F011F880231B062649C3
:10251000061CF81805F0A3FF06F02AF800B206F032
:1025200005F8224D071C2B78002B00D16EE6204BBE
:102530000020185E05F0FAFF80231B069C461A490E
:10254000604405F08CFF06F013F840B205F0EEFF92
:10255000011C301C05F07DFF164B061C0020185E88
:1025600005F0E4FF80231B069C4660443DE60E49CF
:10257000281C05F074FF05F0FBFF0B4944B2301C2A
:1025800005F06DFF05F0F4FF03B205938FE600231D
:1025900093E680273F060449E81905F060FF05F03F
:1025A000E7FF44B2F0197BE60000C841EFE50020E8
:1025B000D6E50020D8E50020F0B54546DE46574672
:1025C0004E4600230022E0B5EB4DD9B01E93249374
:1025D00025931F9320932E932F9329932A934F3360
:1025E000EA54E64B280019001D9245930CF03EFB7F
:1025F000002801D101F09EFDE14B2F001A68072051
:102600002A601B794F372B71DE4B1E001793002376
:1026100031785A004B405BB2D2B2002B01DA424013
:10262000D2B24C0053006240DBB2120601D54340E7
:10263000DBB28C005A006340D2B21B0601D5424087
:10264000D2B2CC0053006240DBB2120601D5434047
:10265000DBB20C015A006340D2B21B0601D54240E6
:10266000D2B24C0153006240DBB2120601D54340A6
:10267000DBB28C015A006340D2B21B0601D5424046
:10268000D2B2C90153004A40DBB2120601D5434021
:10269000DBB20136B742BBD15022AB540CF0A4FDE3
:1026A000B94CBA4B220043CB43C21B78137006F0DF
:1026B00047FBC820400002F075FDFDF7E1FF002256
:1026C0003E23EA540E3BEB5C0C265A1E9341B32288
:1026D0005B4293430F33AE4AFF331380129207F0ED
:1026E0003BFD4D230320EB5C184006F009FF09F089
:1026F00013FFFFF749F93223E85C06F027FF0822B1
:10270000AB5E0B210A22AE57AA56695603960F26D6
:10271000AE57A04802960E26AE5701960D26AE572C
:10272000009606F001FB29009B4806F0FDFA9B4845
:1027300006F09EF9200006F09BF91F21984806F04C
:10274000F3FAE120400206F07FF8964C2060002862
:1027500001D101F02EFD07F0C5FD934A934BD02621
:102760001360934B36065360924B4F929360924B9B
:102770000121D360914B16201361914B536180234B
:10278000DB03B362002201F0B7FE08230022B3622C
:102790000121032001F0B0FE8A4B01220C21102000
:1027A00001F0E6FE01220C21112001F0B7FE01220A
:1027B0000C21132001F0B2FE01220C21162001F0A1
:1027C000ADFE0C210122032001F0A8FE06F044FD1D
:1027D0007D4806F04DF97D4B1E0018002B9306F046
:1027E00057FD7B4806F044F90323328813405A42D0
:1027F0005341784A1C33937043920BF005FB7648A3
:1028000006F036F9FEF782FA744B75489B460023B2
:102810005A46136053609360FEF78AFB00230793C8
:10282000704B3093704B1893704B0593704B219302
:10283000704B0F93704B1093704B0693704B199322
:10284000704B2893704B3193704B3293704B339392
:10285000704B2C93704B4693704B5093704B51932D
:10286000704B714F4793714B4893714B2693714B4B
:102870001B93714B3E93714B3F93714B4493714B40
:102880005293714B1C93714B9846714B0B93714B48
:102890003493714B1493714B1593714B2793714B78
:1028A0000C93714B2D93714B0993714B4993714B61
:1028B0001693714B5393714B2293714B2393714B2E
:1028C0001193714B1393714B0A93714B0D93714B91
:1028D0000E93714B3593714B3693714B3793714B0C
:1028E0003893714B3993714B4093714B3A93714BC1
:1028F0004193714B4A93714B4B93714B4C93714B7A
:102900004D93714B3B93714B4293714B3C93714B85
:102910003D93714B1A93714B4E930123079A5A4082
:10292000079200D07AE3059B1E78012E00D17FE349
:102930005B461B686A49181C994605F0F1FD0028A2
:1029400000D1B8E34846674905F0D4FD5B4600284E
:1029500000D1B1E35B686249181C994605F0E0FDBF
:10296000002800D1A7E348465E4905F0C3FD0028D2
:1029700000D1A0E3B8E0C046FCE50020F8F100106B
:1029800058F200102CE60020E48200209881091003
:10299000AE06002004F6001028F600106482002025
:1029A00034F60010EC7F00204C81002084050020CC
:1029B0006C050020540500203C0500202405002063
:1029C0000C050020B50300104CF6001004E60020B2
:1029D00060F60010BC0300207CF60010D07F0020C1
:1029E00088F40010B4D5002004850020F8E500200C
:1029F000AC0400201C850020B8040020E6E500207F
:102A0000FAE5002034F70010F8800020F480002060
:102A100000810020FC8000208CF60010A0F6001041
:102A200011030010DCE500209C050020E0E50020FB
:102A3000DAE50020DEE50020D2E50020D4E5002024
:102A4000CA0600203CF70010860600205CC5002066
:102A5000ECE50020E0820020E8E50020E9E5002028
:102A6000D6E50020D8E50020EFE50020D4040020C2
:102A700028F70010EAE50020E4F60010A404002086
:102A8000A5040020EBE50020CEE50020F6E50020BF
:102A9000F5E50020E6040020C0040020B00400207A
:102AA000AE040020710600203006002070060020D1
:102AB000F07F0020E2E50020ACF60010C8F6001020
:102AC000BC040020D4060020740600208C040020E2
:102AD000E804002018060020EDE5002004F70010AF
:102AE000000096C3000096435B469E680021301CA0
:102AF00005F00EFD002800D0F5E20F9B1E603A2382
:102B0000EB5C002B00D005E3069B1B78002B10D15B
:102B10003733EB5C002B0CD1199B1B78002B08D1B1
:102B2000219A1388013B1BB21380002B01DC01F0BA
:102B3000A6F91A9B1B78002B1ED0319ADB4B10682C
:102B40009B6A002801D000F0B8FD329A1068339AD1
:102B50001268002A02D09B1A2C9A1360002801D018
:102B600000F074FD2C9B1868002805D03123EB5C25
:102B7000082B01D101F09FF9E12100230020490237
:102B80002268D05401338B42FAD14123EE5C3F3BA3
:102B900032009A43131E00D1D1E2012E01D101F07F
:102BA00050F8069B1B78022B00D058E32F33EB5CC8
:102BB000082B00D153E30F261C9A138801331E40C3
:102BC0001680FDF7E5FC4346B600985118680021D1
:102BD00005F042FC4346596805F03EFC43469968BF
:102BE00005F03AFC4346D96805F036FC43461969BE
:102BF00005F032FC4346596905F02EFC43469969BD
:102C000005F02AFC4346D96905F026FC4346196ABB
:102C100005F022FC4346596A05F01EFC4346996ABA
:102C200005F01AFC4346D96A05F016FC4346196BB9
:102C300005F012FC4346596B05F00EFC4346996BB8
:102C400005F00AFC4346D96B05F006FCF621890520
:102C500005F019FC011CE86905F052FC431E98417F
:102C6000199B18700B9B1B78002B00D032E3069B3E
:102C70001B780893013BDBB2022B00D87AE3059B5B
:102C80001B78002B1BD13B23EB5C002B01D100F008
:102C900032FC069B1B78022B01D100F02CFC239BFD
:102CA0001B78002B01D0FDF75DFE229B1B78002BCB
:102CB00005D03D23EB5C002B01D0FFF767F8169B96
:102CC0001B78002B00D1A1E04423EB5E002B01D048
:102CD00000F031FE129B00269E5F5B461A68586822
:102CE0004D23EB5C022B01D100F058FF00D9CEE35D
:102CF000002B02D080231B06D0186D4905F0AFFBD6
:102D000005F036FC03B220930C9B0020185E05F002
:102D10000DFC674905F0A3FB05F02AFC209B181A5F
:102D2000031C40B2323000DBAAE33222CE235242EF
:102D30000233DBB2042B01D9961936B230000AF007
:102D40004DFB129B18803023EB5C002B01D000F070
:102D500071FCC0239B001B1A1BB299460AF03EFB74
:102D6000060048460AF03AFB7F221300C1170B40C9
:102D7000490E1B184018DB1102409BB2521A402A20
:102D800001DD01339BB24822AB523C9B99460023A4
:102D90009A4623004C4699465821300009F024FCFD
:102DA00008CC010C019353465790683168302022BB
:102DB000C9B2C0B200938036202307F099FA30B22E
:102DC0000AF00CFB3B4B06009C42E5D17F235A36B0
:102DD0004C4633421AD0F217520EB61833409B1AA3
:102DE000402B01DC00F07CFC803B1AB2130009335D
:102DF00001DA00F07AFC91B24B1C9BB2022B01D994
:102E000001F07BF8129A13885B1A1380119B1B78D0
:102E1000002B00D1A7E04423EB5E002B01D000F093
:102E200093FD139B00269E5F5B461A6858684D23EE
:102E3000EB5C022B01D100F0E7FE00D93EE2002B53
:102E400002D080231B06D018194905F008FB05F0B5
:102E50008FFB03B21E930C9B0020185E05F066FBEF
:102E6000134905F0FCFA05F083FB1E9B181A031C9E
:102E700040B2323000DB1AE23222CE235242023319
:102E8000DBB2042B01D9961936B230000AF0A6FA4B
:102E9000139B18803023EB5C002B00D0C4E3C023CD
:102EA0009B001B1A1BB2994606E0C0460040054035
:102EB0000000C841080500200AF090FA06004846C4
:102EC0000AF08CFAAA21824604F024FCAA2183B2DB
:102ED0005046994604F01EFC552903DD4B4601334C
:102EE0009BB2994648234A46EA523D9B99460023A5
:102EF0009A4623004C4699465821300009F074FB4D
:102F000008CC010C01935346579068316830202259
:102F1000C9B2C0B20093AA36202307F0E9F930B253
:102F20000AF05CFAD04B0600A342E5D1AA215A3040
:102F30004C4604F0EFFB002915D0552901DC00F0C8
:102F4000B6FCAA390AB213000E3301DA00F0B4FC61
:102F500091B24B1C9BB2022B01D900F0D7FF139A00
:102F600013885B1A1380206807F0A6F9FEF7CAFCE5
:102F70001F229446179B0022180063449C46072694
:102F8000A146037851005A4052B2C9B2002A01DA70
:102F90007140C9B25C004A006140D2B2090601D555
:102FA0007240D2B29C0051006240C9B2120601D5F3
:102FB0007140C9B2DC004A006140D2B2090601D5B5
:102FC0007240D2B21C0151006240C9B2120601D552
:102FD0007140C9B25C014A006140D2B2090601D514
:102FE0007240D2B29C0151006240C9B2120601D5B2
:102FF0007140C9B2DB014A005940D2B2090601D57D
:103000007240D2B201306045BBD15023EA54012353
:10301000079A4C465A40079200D184E45846309AA9
:1030200018990AF037FE059B1E78012E00D07FE428
:10303000189B8E491B68181C994605F071FA0028E8
:1030400024D048468A4905F055FA00281ED0189B1E
:1030500086495B68181C994605F062FA002815D06D
:103060004846834905F046FA00280FD0189B7F494F
:103070009B68181C994605F053FA002806D048466C
:103080007B4905F037FA002800D02DE55B469B68A8
:103090000021181C994605F03BFA002823D14A4626
:1030A0000F9B1A603A23EB5C002B00D0E6E0059BF7
:1030B000013E1E703DE55B469B680021181C994649
:1030C00005F026FA00280ED14A460F9B1A603A23D3
:1030D000EB5C002B00D0D1E0002E00D129E5059B50
:1030E000013E1E7025E51E23219A138000233A22FB
:1030F000AB54059A13703233E85C06F027FA07F0F8
:103100009BFB5B469E680F9B1E603A23EB5C002B8B
:1031100000D1F9E4109B186802F044F83923EB5C05
:10312000002B01D1FFF7F9FB1099524A0B6893422B
:1031300001D9FFF7F2FB64330B60FFF7EEFB4A3374
:10314000EB5C99464A46289B9B5C002B00D1BEE372
:103150005B461B6808935B465B689A464D23EB5CB5
:10316000022B01D100F03EFD00D9ADE1002B01D1D1
:1031700000F002FD4049504605F071F905F0F8F9FC
:1031800080221206944603B22593089B63441800DC
:10319000394905F064F905F0EBF903B22493249A58
:1031A000131C1A3201DA1A235B421BB2182B00DD02
:1031B0001823259A190092461A3202DA1A2252422C
:1031C0009246524612B2182A02DD1822924618225E
:1031D0003620285C002812D05146479A2698138042
:1031E000489A11800188038050461B9A591812880A
:1031F0001B9B524409B212B21880491052100B1C8A
:103200000F2900DD0F231BB219000F3101DA0F2344
:103210005B42111C0F2A00DD0F210AB210000F3093
:1032200002DA0F225242111C3E9803803F9801801F
:10323000022E00D160E31933D8B24B469B00FB58F5
:10324000192101930023891A0093BE22BE33C9B20B
:1032500007F04EF8069B1B78022B00D1A6E42B98B2
:1032600006F06CF8A7E4C046300600200000FAC360
:103270000000FA432F750000000048423A26002360
:10328000AB553233E85C06F061F907F0D5FAFA2362
:10329000109A9B001360059BAA5D1B78002B02D03F
:1032A0000599013B0B70002A00D033E741E45AB284
:1032B000322A00DCE3E532233222E0E5032B00D0A2
:1032C000C9E5E049101C05F0CAF805F051F903B250
:1032D0001E93C0E5349A136801331360FA23109AE1
:1032E0009B001360002399464A463A33EA54059BF3
:1032F0001A70149B1A70159B1A70069B1B78089302
:10330000002B00D0DEE15B461E685B6899464D23CA
:10331000EB5C022B01D100F059FD00D973E1002BC9
:1033200001D100F064FD484605F022F903B229936B
:1033300080231B06F01805F01BF903B22A93279B84
:10334000299A49991A800C9B2A9A1A8001232D9A4E
:103350001370069A023313703022AA5C2E33EB5C92
:1033600052008A5A09995B00CA5200230B9A1370C3
:10337000033308935B461B6899465B465B689A4635
:103380004D23EB5C022B01D100F00EFC00D98AE04A
:10339000002B01D100F0DBFB504605F0E9F803B249
:1033A0001D9380231B064B44180005F0E1F803B27F
:1033B0001F9374226B469B181888279BC826198870
:1033C0007600431A9BB21A00C83292B2B2420DD9AB
:1033D0001AB2002A00DAC6E3369A1388CB181B1AF1
:1033E0001BB2002B01DC00F088FC13807C226B46B2
:1033F0009B1818880C9BC82619887600431A9BB224
:103400001A00C83292B2B2420DD91AB2002A01DAB9
:1034100000F0DCFB379A1388CB181B1A1BB2002B69
:1034200000DC6DE11380089B032B78D00D9B1A788C
:103430000A9B1B78002B00D070E13123EB5C002A43
:1034400000D0A6E2FC22D2009146002B00D0B1E0D1
:103450003023EB5C002B00D07FE24D99B820CB8865
:103460005A009B188A8803210191494649333F3A03
:103470000091DBB24821D2B208F086F8FFF7FFFBDB
:103480005AB2322A00DC53E43223322250E4032BB6
:1034900000D039E46B49101C04F0E1FF05F068F836
:1034A00003B2209330E4032B00D082E780231B0675
:1034B0005344180005F05CF803B248461D9305F02C
:1034C00057F803B21F9374E7032B00D067E68023FD
:1034D0001B06534418005C4904F0C1FF05F048F88E
:1034E000594903B20898259304F0B9FF05F040F854
:1034F00003B2249353E6229B1B78002B05D03D2377
:10350000EB5C002B01D0FEF741FC239B1B78002BCA
:1035100001D1FFF7D4FBFDF725FAFFF7D0FB149B91
:103520001B78012B00D1FFE2022B00D080E3389BF7
:103530001B78002B00D0D4E33033EB5C399A9B002E
:10354000D05800239A46159A409B1278012A00D140
:10355000E0E2022A00D043E319780022002902D0D9
:103560004A1ED2B21A7031218C46695C359E4900E0
:10357000765AB1464B46099E735201784A434168D8
:103580003A980B0053449B5C62460021AB54149A5A
:103590001170159A1170026801320260052A00D17B
:1035A0008EE3419A12784C9952008A5A9146002B28
:1035B00000D14DE7032B00D112E1072B00D14EE3E0
:1035C000082B00D0CAE0089B012B01D100F01FFDA1
:1035D0003B9B187C597C269B00229B5E1B9A0026F5
:1035E000925F3826AE5D002E01D100F007FD0193F9
:1035F00003230292009313224B4609B200B208F053
:10360000E7FBFFF73CFB032B00D098E680231B066B
:103610004B44180004F0ACFF03B2301C299304F0B3
:10362000A7FF03B22A938AE680235B001B1A1BB212
:10363000994641E480235B001B1A1BB29946FFF7B1
:103640008DFBC0460000C841000048423123EB5CBE
:10365000082B01D0FFF790FAE24B984208D9FA21E3
:10366000890004F07FF8E04A0100469805F05CFB11
:103670002C9B1868DB4B984201D900F021FC329A50
:10368000DA4B12689A4205D82C9A12689A4201D8ED
:10369000FFF772FA509805F0EBF9459A002113688C
:1036A0002B60137901222B71519802F063FC0121E8
:1036B000012002F01BFCFFF75FFA329A181A106023
:1036C000FFF745FA012B00D1A4E2032B00D11FE341
:1036D000022B01D100F06CFC0B9B1A70FFF7CFFAA4
:1036E0001AB2092B01DCFFF781FB0723D1170B402E
:1036F00012999B180A88DB10D31A0B80FFF786FB00
:10370000FA23DB0013800123149A13700A9A1370B2
:10371000089B032B00D107E20D9B1A7831230E98EA
:10372000EB5C0088099E59007052062B01D900F00D
:1037300036FD4A999B00CB589F460E23EB563B2BF8
:1037400000D133E10133AB7300230A990B70002AD7
:1037500000D032E1FC22D200914605333B9A5B0057
:103760009446D05C63445978269B0C3000229B5EC3
:103770001B9A05310026925F3826AE5D002E00D1DF
:10378000A9E3019303230292009314224B4609B24A
:1037900000B208F01DFBFFF772FA0D23EB56172B52
:1037A00000D129E101336B7300230A990B70002AC1
:1037B00000D028E1FC22D20091460433CEE7082154
:1037C0006B5E8B498B4200D12EE101332B810023AC
:1037D0000A990B70002A00D02EE1FC23DB009946E9
:1037E0003B9B9879D979269B0C3000229B5E1B9AD3
:1037F00005310026925F3826AE5D002E00D173E3BE
:1038000001930323029200931C224B4609B200B29B
:1038100008F0DEFAFFF733FA0A23EB560C2B00D13F
:103820001BE10133AB7200230A990B70002A00D010
:103830001BE1FC22D200914602338FE70A210B23C1
:1038400069564398EB56415C8B4200D11EE101332F
:10385000EB7200230A990B70002A00D01DE1FC22B4
:10386000D2009146013379E70C23EB56062B00D1A9
:103870003BE101332B7300230A990B70002A00D01F
:103880003AE1FC23DB009946E2E50F23EB563B2BA4
:1038900000D112E10133EB7300230A990B70002A67
:1038A00000D011E1FC22D2000623914656E70AB26D
:1038B0000E2901DCFFF747FB0723D1170B401399B3
:1038C0009B180A88DB10D31A0B80FFF74CFB4B4682
:1038D0009B00FB5822681B78E12113704A200123CA
:1038E00049022A5C9200BA58D65C2268D654013349
:1038F0008B42F6D1FFF755F950AA7833938278239B
:103900005B1AD382449B3B4900229B5E0122569165
:10391000029257912F32AA5C4F9892008258559884
:10392000128801924A469200BA5800920A0009F0A1
:1039300063FDFFF736F9449E3088C01800B208F0E6
:1039400085FE3080FFF7C6F9449E3088C01800B26B
:1039500008F07CFE3080FFF764FA3B9B18785978BA
:10396000269B123000229B5E1B9A08310026925F34
:103970003826AE5D002E00D1AAE101930323029206
:10398000009319224B4609B200B208F021FAFFF762
:1039900076F90E99099809885A008152062B01D9A7
:1039A00000F0F5FB4B9A9B00D3589F4600230A99E1
:1039B000AB730B709A4200D1CCE60E9B099A1B8820
:1039C00053810E23EB563B22002B01D0013B5AB210
:1039D0000023AA730D9A13700533FC22D20091467E
:1039E000BCE6C0463F420F00B80B0000BFC62D002A
:1039F00033080000BE00BE0000230A996B730B70F1
:103A00009A4200D1ABE30E9B099A1B8813810D23C8
:103A1000EB561722002B01D0013B5AB200236A73E8
:103A20000D9A13700433D8E7DD4B0A992B810023DC
:103A30000B709A4200D1D0E60E9B099A1B88D38066
:103A40000822AB5ED74A934200D1F2E2013B1BB29F
:103A50002B8100230D9A1370BFE60B3BAB72002342
:103A60000A990B709A4200D17BE30E9B099A1B883E
:103A700093800A23EB56012B00D1DCE2013B5BB2C1
:103A8000AB7200230D9A13700233A6E701230021C5
:103A90000A98EB7201708A429FD00E9B099A1B888C
:103AA00053800B23EB56012B00D138E2013BEB7224
:103AB00000230D9A137001338FE700230A99EB73EB
:103AC0000B709A4200D1EDE60E9B099A1B889381F8
:103AD0000F23EB563B22002B01D0013B5AB20023AF
:103AE000EA730D9A1370063377E700230A992B7354
:103AF0000B709A4200D1C4E60E9B099A1B88138072
:103B00000C23EB56002B00D097E206222A730D9A65
:103B10001370B6E641781A7801398A4200DB22E553
:103B20000132D2B21A701EE530223899AA5C0B78A5
:103B300092009A46399B98580278013A924500DBE8
:103B400001E553460133DBB29A460B70FBE448466D
:103B500004F00EFD03B250461D9304F009FD03B2BC
:103B60001F93FFF726FC36990A889B181BB2002B7F
:103B700000DC50E10B8039E48B49089804F06FFCBD
:103B800004F0F6FC884903B25046259304F067FC24
:103B900004F0EEFC03B22493FFF701FB80231B0625
:103BA0009C466044FFF7A9F880231B064B4418008D
:103BB00004F0DEFC03B21D9380231B06534418005F
:103BC00004F0D6FC03B21F93FFF7F3FB37990A8882
:103BD0009B181BB2002B00DC27E10B80FFF723FCB6
:103BE0001A78C0E4802212069446089B6E4963440A
:103BF000180004F034FC04F0BBFC03B225938023CE
:103C00001B065344FFF7C3FA80231B069C466044FF
:103C1000FFF71AF9169B1978002900D126E14823ED
:103C2000EB5A072B00D925E1539A9B00D3589F46A6
:103C30003023EB5C399A9B00D058389B1B789A460E
:103C400081E44A23EB5C52995A00895E9B000A008A
:103C5000F85808F019F908F005FAFEF7A2FF089BDA
:103C6000032B24D03023EB5C429A9B00D3581B6873
:103C700018885988269B0F3000229B5E1B9A1031B2
:103C80000026925F3826AE5D80B289B2002E00D148
:103C9000B9E0019303230292009316224B4609B226
:103CA00000B208F095F8FDF78FFEFEF7E8FF2D3320
:103CB000EB5C429A9B00D358186800F0B9FAD1E740
:103CC0000120419E327842403A98327001606AE4A5
:103CD00003231922009301964B4606F05BFEFEF784
:103CE000CEFF389A013BDBB213703022AA5C3999BF
:103CF00092009A468858FFF726FCFA23DB001380CF
:103D00000223159A13700A9A013B1370FFF76EFB9A
:103D1000069A013B13705B461E685B6899464D230B
:103D2000EB5C022B00D18FE140D8002B00D170E179
:103D3000484604F01DFC03B22E9380231B06F018A6
:103D400004F016FC03B22F93279B2E9A0A991A802F
:103D50000C9B2F9A0E9E1A8001222D9B36881A707A
:103D600000230B700D990B703121695C8C46480063
:103D700009990E526146072900D10BE1082900D0AC
:103D800072E122990B7023990B7011990A700699B0
:103D90000A700B9A137001230893FFF7EBFAC046E1
:103DA000E60700003308000000004842032BCBD197
:103DB00080231B064B44180004F0DAFB03B2301CCE
:103DC0002E9304F0D5FB03B22F93BDE780231B068F
:103DD000F01804F0CDFB03B2299380231B064B445B
:103DE000180004F0C5FB03B22A93FFF7A8FA301CB1
:103DF00004F0BEFB03B24846299304F0B9FB03B2BA
:103E00002A93FFF79CFA03231622009301964B4650
:103E100006F0C0FD47E7FA23DB000B800123159A6B
:103E200013700D9A1370FFF7E1FAFA23DB000B8091
:103E30000223149A13700D9A013B1370089B032BF5
:103E400001D1FFF774FB0A9B1A783123EB5C002A3F
:103E500000D19EE50E98099E008859007052062BED
:103E600000D991E14E999B00CB589F46119B1B783E
:103E7000002B62D100230B9A1370FFF77BFA4A23C1
:103E8000289AEB5CD35C002B07D0059A137801339A
:103E9000DBB21370012B00D1C6E03A260123219A30
:103EA0000020AB551D33138005F050FB06F0B0FC2D
:103EB000AA5DFFF7F8F9C24B984201D8FEF75CFE05
:103EC000FA21890003F04EFCBE4A0100469804F036
:103ED0002BFFFFF7D4FB03231422009301964B46DC
:103EE00006F058FDFEF7CBFE03231C22009301963B
:103EF0004B4606F04FFDFEF7C2FE1299D30F9B18FA
:103F00000A885B10D31A0B80FEF780FF1399D30F3A
:103F10009B180A885B10D31A0B80FFF724F80A233A
:103F2000439AEB56D35C0D9AEB7200231370FC237B
:103F3000DB0099460123FFF711FC4822AB5A052B01
:103F400019D93023A952EB5C002B1AD14823EA5A25
:103F5000183BEA54229A2F3B1370239A13700023C4
:103F6000119A13702D9A1370069A137000230B9AEE
:103F70001370FEF788FE3022AA5C002A7AD1002B4B
:103F8000E4D0139A1388B4331380129A1388B4338D
:103F90001380DBE722990B7023990B7016990A7036
:103FA00006990A700B9A137001330893FFF7E2F930
:103FB00031232800069E09993270EB5C359A5B002C
:103FC000D25A0830CA5205F063F903232A891340F4
:103FD0005A425341439A1C3393704A462D9B1A70A0
:103FE000119B1B78002B00D099E033780893013B9C
:103FF000DBB200220B990A70FEF73EFE0323132268
:10400000009301964B4606F0C5FCFEF738FE2F33B1
:1040100029E6301C04F0ACFA03B248462E9304F0B3
:10402000A7FA03B22F938FE6219A3B331380FEF752
:1040300074FC654B0CE50C2322E5013B2B7300233C
:104040000D9A1370FFF71DFC80231B06F01804F077
:104050008FFA03B22E9380231B064B44180004F002
:1040600087FA03B22F936FE60B9A1370022308931B
:10407000FFF780F9002B00D068E782E74622AB5CAF
:104080000133DBB2052B34D0AB54F3E64222AB5CF8
:10409000022B2ED00133AB54ECE6459A13682B600B
:1040A00013792B71FCF712FC069B1B780893013BDC
:1040B000DBB29EE7402101226B5C53406B545ED023
:1040C00041233E39E9540333E95E002900D0D1E6AB
:1040D000EA52CFE63F2101226B5C53406B544BD038
:1040E0004123EA54C6E64A22AB5C0133DBB2052B1E
:1040F000CAD10023AB54BDE60023069A229913705F
:1041000001220A7023990A70169A13702D9A13705F
:104110002CE735220123A95C4B40AB54AAE6FCF7FF
:1041200091FA0123229A1370239A13704A46119B25
:104130001A70B9E7254B1B78002B05D128002449BC
:104140000AF094FD002812D0224C234B220043CBCE
:1041500043C21B881380214B1793FEF7A8FA042350
:104160003BE4FC22D20002239146FFF7F7FA0BF062
:104170002BF8184C1A4BE9E74122AB547AE644225B
:10418000AB52033AAB5475E600220A990A7000223A
:104190000D990A70FC22D2009146FFF70EFA002119
:1041A0000A9801708A42F2D1FC22D2009146FFF7B0
:1041B00004FA0C4804F05CFC2068FEF7CCFAC04618
:1041C0003F420F00B80B0000E6070000B8030020D4
:1041D00058F20010E4820020B88109102CE600207B
:1041E000A881091044F60010F0B5C646884600B50F
:1041F000102105001F000D4806AB1E88140004F0B6
:1042000093FD102004F020FB43462D041B042D0CCD
:1042100024041D433F04079B240C3C430560068196
:104220004460C36080BCB846F0BDC046BC82091083
:1042300030B50400E56883B083790279817800782D
:1042400001952489009406F053F803B030BDC046B0
:10425000F0B587B00CAC40CC059027880EAC247824
:104260000491110002B20014022C17D007D8002CC0
:1042700020D0134C0090206808F0F4FA0CE0032CD6
:104280000AD101230E48029301970096049A0599DA
:104290000068593308F0DEFC07B0F0BD0023084881
:1042A0000293019700960B00049A0599006808F0A4
:1042B000D1FCF1E7024C0090206807F0F1FEEBE73B
:1042C00008750020D0231B061B687B4A99005258B2
:1042D000F0B5574692465A1E93413022DE464E466E
:1042E00045465B421A401300744AE0B5944683B0D9
:1042F00063440193724B884608260F279B4635007E
:10430000083DEA081300019908339B005C58002C13
:1043100022D0012399465346002B27D03900214053
:10432000274213D05B4642469A584B46AB401A424E
:104330000CD1072208002A40920090400200EB08AE
:1043400060483C339B001A502800D04724090135AF
:10435000002C01D0AE42E1D80836282ECFD103B0D0
:10436000F0BCBB46B246A946A046F0BD390021408C
:10437000274206D00133AB404546514840591842C8
:1043800076D02309E8D00F22110019401A420DD02F
:104390004546F31F0E3A9A4049484059104205D10C
:1043A000DB08484A3C3309019B009950230AD3D0CB
:1043B0000F22110019401A420DD04546B31F0E3A84
:1043C0009A403F484059104205D1DB083D4A3C33F2
:1043D00009029B009950230BBED00F2211001940F7
:1043E0001A4236D1230CB7D00F22110019401A42BD
:1043F00043D1230DB0D00F22110019401A424BD1E6
:10440000230EA9D00F22110019401A420DD04546A3
:10441000B31E0E3A9A402A484059104205D1DB0893
:10442000284A3C3309069B009950240F721E002C29
:1044300000D191E701234046934021490958194290
:1044400000D089E7D3083C331E4A24079B009C50C8
:1044500082E74546731F0E3A9A4019484059104268
:10446000C0D1DB08174A3C3309039B009950B9E7D8
:10447000144B3C329200D15083E74546331F0E3A2D
:104480009A400F4840591042B3D1DB080D4A3C33E3
:1044900009049B009950ACE74546F31E0E3A9A403A
:1044A000074840591042ABD1DB08064A3C330905A6
:1044B0009B009950A4E7C0460481002000410140C0
:1044C00050C5002000400140094A10B594464024E0
:1044D000830063441A68C000624080341440802224
:1044E000520113431C60034B9C466044416010BD65
:1044F00004C0014000400140074B80009C466044DE
:104500000368C90092000A435A400C231A408023D2
:104510005B0103431A60704704C00140D0231B06AF
:104520001B6830B50500584243412F205B4283434E
:104530000D48EC0884460720284080008140200078
:104540000A4D3C3063448000A40041511B19002AED
:1045500004D0802292011343196030BDC022920121
:1045600013431960F9E7C046304101400040014063
:10457000F8B51D00D0231B061C68060060424441AC
:104580002F20644284432748F708844607203040A0
:10459000800081403800244E3C3064448000BF00DD
:1045A0008151E419002A11D0802292012243116026
:1045B0001C681E4EA400A359002B15D0002D25D039
:1045C000A55101210D2000F0ABF8F8BDC0229201E9
:1045D000224311601C68154EA400A359002B0CD077
:1045E000002D18D0A551F0E7002DEAD000220D20B3
:1045F0000F49A55100F0D8F8E3E7002DE5D00022DF
:104600000D200B49A55100F0CFF8DEE70D20084939
:1046100000F0C4F9D4E70D20054900F0BFF9A55119
:10462000D3E7C046304101400040014004810020F2
:10463000C5420010084B80009C466044002905D00C
:10464000802340229B0103431A607047C02340220D
:104650009B0103431A60F8E704C001400123D02204
:104660008340120693629361094A40219446830075
:1046700063441A68C0004A408031114080225201D0
:1046800013431960034B9C46052360444360704705
:1046900004C001400040014070B5EFF3108C72B6C9
:1046A0000D4D2B68002BFCD0BFF35F8F0724CB0888
:1046B000C618C05C01230C40A3401C000440034208
:1046C00007D118433070BFF35F8F2C608CF31088D4
:1046D00070BD100001F030FA2C0100D0024B1868B8
:1046E0008007C00F7047C04600C006400021044B41
:1046F000044ABFF35F8F02C39342FAD17047C046AA
:10470000000100D0800100D0044A1078431CDBB2C5
:10471000172B00D9102313707047C0460C7500206A
:1047200001238340002904D0034A1360034A136025
:104730007047034A1360FBE780E200E000E100E01D
:1047400080E100E0024B10309B688000C058704749
:1047500000ED00E070B50D00EFF3108672B60F4A61
:104760001368002BFCD0BFF35F8F0D4B10309B689C
:1047700084001B590B4A934203D09D4201D001F0A3
:10478000F3F9074B9B681D51BFF35F8FBFF35F8F3A
:104790000022024B1A6086F3108870BD240100D0FD
:1047A00000ED00E0CD010010F0B557464E46DE4664
:1047B0004546E0B585B0060000911700EFF3108B79
:1047C00072B66B4A1368002BFCD0BFF35F8F0025D5
:1047D000684B5D579A46002D00DA8CE06B00664C02
:1047E00001935B199B009846A146C1444B46524633
:1047F0009B7910361370614BB6009B6899590B1B5F
:104800002F2B33D95E4B994200D0ADE0019B42463D
:104810009C465C4B6544AD0063535B4B0232A2186F
:10482000043B9B1A1B05594A5B0D651913436B80AA
:10483000574B0121AB80FF23AB71009BEF71AB6045
:104840004B460B4319004D4B9B689951BFF35F8F4B
:10485000BFF35F8F0022464B1A608BF3108805B0C0
:10486000F0BCBB46B246A946A046F0BD01200A00F6
:104870008243D3798C46BB4231D845461300454923
:104880001B1B5B415943090D3E4B63533E4B0235A5
:104890006519043B5B1B1B053C4D5B0D2B43AA4676
:1048A0004D466B800425AC465546E044131F4444F6
:1048B0001B1B1B055B0D1D434B46997100999D8089
:1048C00099604946DF71344B01431360BBE75800E0
:1048D000C01880002018C179B94212D902000623FD
:1048E000D356002BF3DA0293131D9A46BD231B0205
:1048F0006146039319E001F037F9002553465D57EF
:104900006CE7908802934005131D9A460315614693
:104910009C464046D444634604302018181AE023CD
:104920000005400D1B021843039004235B429C4684
:10493000E14450464B461B1A1B055B0D9C46134B2E
:10494000957198466346404603439380019B5A19EC
:104950009200039BA418A380029B0F4AA371009BA3
:104960002260E771A3606EE701F0FEF84EE7C046F3
:10497000240100D0F0E500201075002000ED00E0DB
:10498000CD01001000A1FFFF4075002000E0FFFFF7
:1049900000BDFFFFAAAA000001488047F0B5DE462F
:1049A00057464E464546E0B50C0083B0EFF3108AFB
:1049B00072B6604A1368002BFCD0BFF35F8F1022E1
:1049C000914681444A465C4B96009B689D595B4BDF
:1049D00098469D4205D0A54216D0594FEB1B2F2B70
:1049E00014D9554B9B689D51BFF35F8FBFF35F8F09
:1049F0000022504B1A608AF3108803B0F0BCBB460B
:104A0000B246A946A046F0BD1D00EAE70123834057
:104A10009B465A464B4B1B681A4000925A464A4BDB
:104A20001A60BFF35F8FFBF71EFC031E01901DD1C0
:104A30002A0001339A439068844208D171E04B0008
:104A40005B189B00FB189868A04245D01A0006210D
:104A500051560029F3DA84426AD0009B002B34D0EF
:104A60005A463A4B1A60374B1A60BAE7814530D143
:104A70002A0001239A4390688442E8D106215156C6
:104A80001300002940DB4A00501880003C18804683
:104A9000A0689860E079D8710620205698710028A7
:104AA0002FDBA488F81A6405241544440019E02477
:104AB0000005400D2402204398805318244A9B008F
:104AC0001078FB1898711170C7E75A461E4B1A6090
:104AD00087E701F049F8CBE7062159560029D2DAD9
:104AE0000199002910D1FF3191711A49918018491B
:104AF0000A789A71184ADB1B5B415A43120D0A70FF
:104B0000ABE7BD200002D7E7144A1549D21A083A8C
:104B10005002400D01439980124952080A43DA803D
:104B20009BE70621515613000029ACDA4546DEE723
:104B30001300D5E7240100D000ED00E0CD01001006
:104B40001075002000E100E080E100E080E200E07C
:104B5000F0E5002000BDFFFFAAAA00004A75002072
:104B600000F0FFFF00F8FFFFF8B501250400054342
:104B7000FBF779FBEFF3108C72B6214A1368002B18
:104B8000FCD0BFF35F8F1F4E2100B7681E4A1F4B3A
:104B9000891A49414B431B0D59B28300F858A8426A
:104BA0001CD00623D3568B421CD01223D3568B42E3
:104BB00022D01E23D3568B4220D02A23D356032043
:104BC0008B4210D0124B1A781970A271BFF35F8F0D
:104BD00000220B4B1A608CF31088F8BDB2680D48A8
:104BE000D050EFE7002043001B189B00D218FF2392
:104BF0009371094B9380E5E70120F4E70220F2E787
:104C0000240100D000ED00E010750020AAAA0000E9
:104C1000F0E50020CD01001000BDFFFF054B064A66
:104C20001360064A136053609360D360136153614D
:104C3000936170478080808000E400E004E400E03D
:104C4000024B9C466144890001607047400000347B
:104C500083680B4810B5844661446244120109011F
:104C600059189B185C684A680120944201D802D008
:104C70000020C0B210BD1A680B689A42F9D8F7E755
:104C8000FFFFFF0F0A4B1968EFF3108072B60A6836
:104C9000002AFCD0BFF35F8F1B68BFF35F8F002239
:104CA0001A6080F3108840BF002000217047C04682
:104CB000A0C50020F8B5574645464E46DE46E0B54D
:104CC00098460CAB1C780DAB1B78070091469A46B2
:104CD0000568002C5ED1AC7B002C3BD066002968B7
:104CE0003619033E89194B78AB73002B00D1EB7357
:104CF00000238B704B700B702D4BE218BB681201B8
:104D00009B184A461A6042465A600A9A9A600B9A61
:104D1000DA6000238B704B700B706B7B9B46002B13
:104D20002BD022005946A8686B6898472A6800284B
:104D300016D05B4658465B005B449619033BB07047
:104D4000D118D35C002B00D073705B460C706B7372
:104D50005C4513D0F0BCBB46B246A946A046F8BDA0
:104D60005B465B005B44033BD3189C709119925DDA
:104D7000002A00D05A705B460B706C734A4643465B
:104D8000387D00F027FB051E0AD10E9B002BE1D0D9
:104D90001D70DFE7660029683619033E8919ABE705
:104DA0005346002BF1D12100386800F069FDECE793
:104DB000FFFFFF0FF0B5DE4657464E46454600233F
:104DC000E0B58DB00A936A4B8200D75800239B460A
:104DD0000B9000F06BFA02000B007868EFF310897B
:104DE00072B64D4601680029FCD0A946BFF35F8F1B
:104DF00039684E7B8C46002E2ED0BC685D49A24699
:104E0000711809018A4451460868496804000D0078
:104E1000A41A9D41002D5EDD02000B000B9800F0EE
:104E2000D9FA002300229A4600230892099300230E
:104E300098467B68BFF35F8F5A461A6089F31088E3
:104E40004346002B12D10028C3D10DB0F0BCBB46A5
:104E5000B246A946A046F0BD002300229A46002390
:104E600008920993002300209846E2E70A9B5146E6
:104E700018023043C047069007917A68EFF3108517
:104E800072B654461368002BFCD0A246BFF35F8F66
:104E90000699079A002A3BDB114302D03B69002B9D
:104EA00052D13B68D97B002905D01A6848004118C7
:104EB0005218033A5670DE73FA68013E935D01336F
:104EC00093555B463B617B68BFF35F8F5A461A6020
:104ED00085F310887DE7002D01D1002C9CD10021A5
:104EE000604600F035FC53465C681B6808930994E3
:104EF00053469B6898465346DB689A46FB689B1965
:104F0000013B1B780A931B0203433B61002090E79F
:104F10003B69002BC5D0089B099C5B1A94410898FB
:104F200009991A002300A14219D899421BD00021E7
:104F30000491013103915146019141463800029696
:104F40000091FFF7B7FEBCE700F0B0F9069A079BA7
:104F500012184B41994202D8E9D19042E7D9012277
:104F60005242D317E3E708999142E0D9F7E7C046E8
:104F700040C50020FFFFFF0FF8B557464E46454697
:104F8000DE46E0B5404D824689466A68EFF31088F8
:104F900072B61368002BFCD0BFF35F8F2E68B47B12
:104FA000002C48D0670033683F19033FDB195A785B
:104FB000B273002A00D1F273344AA118AA68090119
:104FC00052185146116049465160314991600021A3
:104FD000D160997059701970737B9B46002B45D036
:104FE00022005946B068736898473268002830D06C
:104FF0005B4658465B005B44D719033BB870D11839
:10500000D35C002B00D07B705B460C7073735C45E7
:105010002DD00026EB681B19013B19786B68BFF394
:105020005F8F00221A6088F310880020002E0AD1BA
:105030000802204307E06B68BFF35F8F1C6088F3B2
:10504000108801204042F0BCBB46B246A946A046AB
:10505000F8BD5B465B005B44033BD3189C70D119E1
:10506000D25D002A00D05A705B460B7074735246B2
:105070004B46287D00F0AEF9061ECAD021002868F4
:1050800000F0FEFBC6E7C04658750020FFFFFF0F8B
:10509000854C001010B5124C6368002B04D00A2117
:1050A0001048FFF7CDFD10BD23000F4A10212068E6
:1050B00000F04EFA032000F0EDF8032000F0F8F9BC
:1050C00003200A4900F040F9FFF71EFB084B9C46FD
:1050D000032360442375074B80006060DC60DEE7DB
:1050E00058750020A0C50020514C0010B54D00108F
:1050F0004000003440C50020F0B504000D00062635
:105100007642F717C64636196F4100B58F4213D85D
:1051100010D000F0CBF832003B00121A8B41002B6C
:1051200014DC002B37D02900200000F0FDF880BCF3
:10513000B846F0BD8642ECD90026002700F0B6F84C
:1051400032003B00121A8B41002BEADD300039009F
:10515000FFF712FF0028E6DB00239846BC460F4A03
:105160000F4F7B6A9C4504D8B96AB142DBD29C459B
:10517000D9D11168EFF3108072B60B68002BFCD008
:10518000BFF35F8F1368BFF35F8F4146196080F3F1
:10519000108820BFE5E7002AC5D0D7E7A0C50020CA
:1051A0000040054070B5060000F080F8FA220400C7
:1051B0000D00002330000021920003F02DF90019AA
:1051C00069418D4205D802D0FFF796FF70BD844239
:1051D000FAD901204042C117F6E7C046F0B5D646DD
:1051E0004F464646C0B5EFF305823F2313401800F3
:1051F0001038EFF3108C72B620490A68002AFCD0F0
:10520000BFF35F8F0122170087401D4C1600A24696
:1052100067631C4C2578A0462C00C44026402242DF
:1052200015D05246566A184A8400A258964218D39E
:105230004246164BBD43E3581570BFF35F8F002203
:105240000A608CF31088002B06D0984704E0BFF367
:105250005F8F0E608CF31088E0BCBA46B146A8465A
:10526000F0BD0B4A9B00904643441A681A60BFF396
:105270005F8F00230B608CF31088EDE7280100D0CE
:1052800000400540F9E50020A4C50020DC7F002097
:10529000D03F054010B5034B01001800024AFFF74C
:1052A000FBF910BDE5E50020D0820910034B596AD7
:1052B0000A00986A596A8A42FAD17047004005404C
:1052C00070B504000D00174A536A1900966A536AB4
:1052D0008B42FAD13000190024184D41AB4216D848
:1052E00013D0104B2A005B6A9D4203D90D494B6ACB
:1052F0009342FCD3934207D10A4A02E0516A994291
:1053000002D1916AA142F9D370BDA642E9D9054BF9
:105310005B6A1C005A1CEFD0012201246442E5178D
:105320005242E3E700400540064A536A9942FCD8DE
:1053300007D1044B02E05A6A914202D19A6A824232
:10534000F9D370470040054070B504000D00EFF33D
:10535000108672B61A4A1368002BFCD0BFF35F8F19
:10536000002D1BD02000FFF7EDF9164981420AD02D
:105370002000FFF7EFF901212000FFF7D1F9012309
:10538000A340114A1360114BA400E550BFF35F8F97
:1053900000220B4B1A6086F3108870BD0121A140DA
:1053A0000A4BA200D5500A4B20001A788A430549BF
:1053B0001A70FFF7F3FA00212000FFF7B1F9E5E7D3
:1053C000280100D0DD51001038600540DC7F00204E
:1053D000F9E50020F0B54F46D6464646C0B5070071
:1053E0002E4C616A0D00A66A616AA942FAD18B420D
:1053F00008D805D00120E0BCBA46B146A846F0BDA9
:10540000B242F7D9EFF3108A72B625480168002935
:10541000FCD0BFF35F8F0125BD4022491F4C884659
:10542000097889462943C9B28C46414660460870CE
:10543000391D890065630A511B49B8004350216A30
:105440000020294219D0616A0800A66A616A814277
:10545000FAD18B4219D801D1B24216D8CC450BD023
:105460000E4B1F221D625D6301233A4093400F4A99
:10547000136043464A461A700120BFF35F8F002233
:10548000074B1A608AF31088B5E70020BFF35F8FDF
:105490000022034B1A608AF31088ACE700400540F5
:1054A000280100D0F9E50020A4C5002080E200E03A
:1054B000EFF3108C72B60A490B68002BFCD0BFF3D7
:1054C0005F8F01238340074A0748136202789A439B
:1054D0000270BFF35F8F00230B608CF3108870475E
:1054E000280100D000400540F9E5002070B5050016
:1054F0000E001400002923D0002A12D080686B68A7
:105500009847296800280ED063001B197200033BDE
:105510009219CB18033A9E7088188A5C002A11D120
:105520000470300070BD73009B196200033B1219B8
:10553000CB18033A9C7088188A5C002A05D1067043
:105540002000EFE75A700470EBE75A700670F7E737
:1055500030B583600023CCB24373013304734260DF
:105560008373C4730D000068012C06D9421C0133FB
:10557000DBB2137003329C42F9D1FF2129404B006A
:105580005B18C01800230338437030BD70B50500A8
:105590000C1E07D0630001681B19033BCB185A7817
:1055A000002A01D1200070BD50008018033809186E
:1055B00000204E784870210058702800FFF796FFB1
:1055C000310004002800FFF7E1FF0600002C26D080
:1055D0000028E7D021003200A8686B689847296846
:1055E00000280ED073009B196200033B1219CB18E0
:1055F000033A9C7088188A5C002A00D05A700670A2
:10560000D0E763001B197200033B9219CB18033AD1
:105610009E7088188A5C002A00D05A70047034008A
:10562000C0E7C046F8B557464E464546DE464C00F4
:10563000E0B5641817000268033C0500105D1319FB
:105640000E009C46002852D0430098461B18033B8E
:10565000D31859788A46002919D1002F0CD0EC7B39
:10566000002C50D063001B19D318033B5E70EE73FF
:10567000434619180339531800229A7000236246D2
:105680005370F0BCBB46B246A946A046F8BD4900DF
:105690005144033952185178884600215170894687
:1056A0005970524601002800FFF720FF434682460A
:1056B000002B07D05B0029684344033BCB185A7882
:1056C000002A2CD1514642462800FFF70FFF010067
:1056D000002F1AD0A4462A68EF7B9444002F04D0F0
:1056E0007B00DB19D318033B5E70EE7310E0002FD4
:1056F000C4D0E97B002910D04B005B18D318033BC2
:105700005E70EE73BAE7EE73B6E7A4462A68944477
:105710000029B3D04B009846AAE7EE73AEE75000DD
:1057200080180338091848788346484648705870EE
:1057300041462800FFF7DAFE594680462800FFF769
:1057400025FF414602002800FFF7D0FE8046B9E75A
:10575000F8B557464E464546DE46E0B5467B0268FC
:105760007500AD19033D0F00515D531904009C46AF
:10577000002953D04B0098465B18033BD318587848
:10578000824600281BD1002F0CD0E57B002D51D084
:105790006B005B19D318033B5E70E67343465818E1
:1057A0000338131800229A700023624630005370A9
:1057B0006173F0BCBB46B246A946A046F8BD4000A6
:1057C00050440338121850788046002050708146AB
:1057D000587052462000FFF789FE43468246002B50
:1057E00007D05B0021684344033BCB185A78002A5A
:1057F0002CD1514642462000FFF778FE0100002FD1
:105800001AD0AC462268E77B9444002F04D07B007A
:10581000DB19D318033B5E70E67310E0002FC3D092
:10582000C07B002810D043001B18D318033B5E70C8
:10583000E673B9E7E673B5E7AC46226894440028FE
:10584000B2D043009846A9E7E673ADE75000801850
:1058500003380918487883464846487058704146CE
:105860002000FFF743FE594680462000FFF78EFEDA
:10587000414602002000FFF739FE8046B9E7C046E6
:1058800070B5050000292CD0437B8B422ED04C00F4
:1058900000686418033C0419A278002A21D0530040
:1058A0009B18033BC25CC6188A4202D11BE0002A47
:1058B00008D053009B18033BC3185A788A42F6D18C
:1058C00062785A70002301222800A3706370FFF7EA
:1058D000A9FE697B02002800FFF708FE687301201B
:1058E00000E0002070BD63783370EBE701221900FF
:1058F000FFF798FEF2E7C04610B50400FEF704FF7C
:1059000001002000FFF79CF9FF232371BFF35F8F95
:1059100010BDC04610B50400FEF7F6FE01002000E1
:10592000FFF78EF9FF23A380BFF35F8F10BDC04642
:10593000F8B5040006200D0000F076FA002844D0E7
:105940002A4B2B49E21853425A418023DB039C46E1
:105950009205284B62441A60274B1A6010008B682E
:105960009843FBD1214B254AE31859424B418021F2
:105970005B0049000620995200F056FA2900C00049
:1059800001F0F0FEC30921D1402701212600802526
:105990006162A36200232C36AD0135432B600620E3
:1059A00000F042FA3900800001F0DCFE6022E36A78
:1059B00053400E321A4080235B0133431A60104B70
:1059C000236310232B600D3BA364F8BD0D4A934263
:1059D00003D900230C4F0D49D8E77F220240013242
:1059E00052089F011900BF181300CFE70080FCBFC9
:1059F00000C0004000E0004000F00040B8E500209A
:105A000001030000FEFF0000C0FF3F00FFFF000099
:105A10002C4B2D4A70B51A602C4A2D4B2D491A601B
:105A200014008B689C43FBD12B4D2C4EB54208D201
:105A3000013E761BB60808CD984723000134B342D7
:105A4000F9D100F097F8264A214B1A60214A936851
:105A5000DB43DB01DD09002BF9D14022214B224C35
:105A6000224E9A675A671A67DA66B44208D22368E8
:105A70002000002B20D00834FFF74CFFB442F6D3AF
:105A80001B4C1C4EC022B168200002F001FFB46024
:105A9000FEF72CFEFFF7C2F8FFF7FCFA164C174E84
:105AA000B44208D2013E361BB60808CC98472B00FA
:105AB00001359E42F9D170BD0834FFF71DFFB44295
:105AC000D5D3DDE700E00040BFCDFBFEFE7F3C000C
:105AD00000F0004000C00040087B0020187B002040
